{
  "contractName": "QRGuide",
  "abi": [
    {
      "inputs": [],
      "stateMutability": "nonpayable",
      "type": "constructor"
    },
    {
      "inputs": [
        {
          "internalType": "string",
          "name": "email",
          "type": "string"
        },
        {
          "internalType": "string",
          "name": "password",
          "type": "string"
        }
      ],
      "name": "signup",
      "outputs": [],
      "stateMutability": "nonpayable",
      "type": "function"
    },
    {
      "inputs": [],
      "name": "viewUsers",
      "outputs": [
        {
          "internalType": "string[]",
          "name": "",
          "type": "string[]"
        },
        {
          "internalType": "string[]",
          "name": "",
          "type": "string[]"
        }
      ],
      "stateMutability": "view",
      "type": "function",
      "constant": true
    },
    {
      "inputs": [
        {
          "internalType": "string",
          "name": "filepath",
          "type": "string"
        },
        {
          "internalType": "string",
          "name": "productcost",
          "type": "string"
        },
        {
          "internalType": "string",
          "name": "productname",
          "type": "string"
        },
        {
          "internalType": "string",
          "name": "productlocation",
          "type": "string"
        }
      ],
      "name": "addProduct",
      "outputs": [],
      "stateMutability": "nonpayable",
      "type": "function"
    },
    {
      "inputs": [],
      "name": "viewProducts",
      "outputs": [
        {
          "internalType": "string[]",
          "name": "",
          "type": "string[]"
        },
        {
          "internalType": "string[]",
          "name": "",
          "type": "string[]"
        },
        {
          "internalType": "string[]",
          "name": "",
          "type": "string[]"
        },
        {
          "internalType": "string[]",
          "name": "",
          "type": "string[]"
        },
        {
          "internalType": "uint256[]",
          "name": "",
          "type": "uint256[]"
        }
      ],
      "stateMutability": "view",
      "type": "function",
      "constant": true
    }
  ],
  "bytecode": "0x608060405234801561001057600080fd5b506000600781905550611163806100286000396000f3fe608060405234801561001057600080fd5b506004361061004c5760003560e01c806314ebdb791461005157806347e70e6414610070578063f9f24da11461008c578063fde74e81146100ae575b600080fd5b6100596100ca565b60405161006792919061098c565b60405180910390f35b61008a60048036038101906100859190610b0c565b61027f565b005b61009461035a565b6040516100a5959493929190610c4c565b60405180910390f35b6100c860048036038101906100c39190610cc2565b61071b565b005b6060806000600181805480602002602001604051908101604052809291908181526020016000905b8282101561019e57838290600052602060002001805461011190610dc8565b80601f016020809104026020016040519081016040528092919081815260200182805461013d90610dc8565b801561018a5780601f1061015f5761010080835404028352916020019161018a565b820191906000526020600020905b81548152906001019060200180831161016d57829003601f168201915b5050505050815260200190600101906100f2565b50505050915080805480602002602001604051908101604052809291908181526020016000905b828210156102715783829060005260206000200180546101e490610dc8565b80601f016020809104026020016040519081016040528092919081815260200182805461021090610dc8565b801561025d5780601f106102325761010080835404028352916020019161025d565b820191906000526020600020905b81548152906001019060200180831161024057829003601f168201915b5050505050815260200190600101906101c5565b505050509050915091509091565b60088260405161028f9190610e35565b908152602001604051809103902060009054906101000a900460ff16156102b557600080fd5b6000829080600181540180825580915050600190039060005260206000200160009091909190915090816102e99190610ff8565b5060018190806001815401808255809150506001900390600052602060002001600090919091909150908161031e9190610ff8565b5060016008836040516103319190610e35565b908152602001604051809103902060006101000a81548160ff0219169083151502179055505050565b60608060608060606003600460066005600284805480602002602001604051908101604052809291908181526020016000905b828210156104395783829060005260206000200180546103ac90610dc8565b80601f01602080910402602001604051908101604052809291908181526020018280546103d890610dc8565b80156104255780601f106103fa57610100808354040283529160200191610425565b820191906000526020600020905b81548152906001019060200180831161040857829003601f168201915b50505050508152602001906001019061038d565b50505050945083805480602002602001604051908101604052809291908181526020016000905b8282101561050c57838290600052602060002001805461047f90610dc8565b80601f01602080910402602001604051908101604052809291908181526020018280546104ab90610dc8565b80156104f85780601f106104cd576101008083540402835291602001916104f8565b820191906000526020600020905b8154815290600101906020018083116104db57829003601f168201915b505050505081526020019060010190610460565b50505050935082805480602002602001604051908101604052809291908181526020016000905b828210156105df57838290600052602060002001805461055290610dc8565b80601f016020809104026020016040519081016040528092919081815260200182805461057e90610dc8565b80156105cb5780601f106105a0576101008083540402835291602001916105cb565b820191906000526020600020905b8154815290600101906020018083116105ae57829003601f168201915b505050505081526020019060010190610533565b50505050925081805480602002602001604051908101604052809291908181526020016000905b828210156106b257838290600052602060002001805461062590610dc8565b80601f016020809104026020016040519081016040528092919081815260200182805461065190610dc8565b801561069e5780601f106106735761010080835404028352916020019161069e565b820191906000526020600020905b81548152906001019060200180831161068157829003601f168201915b505050505081526020019060010190610606565b5050505091508080548060200260200160405190810160405280929190818152602001828054801561070357602002820191906000526020600020905b8154815260200190600101908083116106ef575b50505050509050945094509450945094509091929394565b60016007600082825461072e91906110f9565b92505081905550600260075490806001815401808255809150506001900390600052602060002001600090919091909150556003849080600181540180825580915050600190039060005260206000200160009091909190915090816107949190610ff8565b506004839080600181540180825580915050600190039060005260206000200160009091909190915090816107c99190610ff8565b506006819080600181540180825580915050600190039060005260206000200160009091909190915090816107fe9190610ff8565b506005829080600181540180825580915050600190039060005260206000200160009091909190915090816108339190610ff8565b5050505050565b600081519050919050565b600082825260208201905092915050565b6000819050602082019050919050565b600081519050919050565b600082825260208201905092915050565b60005b838110156108a0578082015181840152602081019050610885565b60008484015250505050565b6000601f19601f8301169050919050565b60006108c882610866565b6108d28185610871565b93506108e2818560208601610882565b6108eb816108ac565b840191505092915050565b600061090283836108bd565b905092915050565b6000602082019050919050565b60006109228261083a565b61092c8185610845565b93508360208202850161093e85610856565b8060005b8581101561097a578484038952815161095b85826108f6565b94506109668361090a565b925060208a01995050600181019050610942565b50829750879550505050505092915050565b600060408201905081810360008301526109a68185610917565b905081810360208301526109ba8184610917565b90509392505050565b6000604051905090565b600080fd5b600080fd5b600080fd5b600080fd5b7f4e487b7100000000000000000000000000000000000000000000000000000000600052604160045260246000fd5b610a19826108ac565b810181811067ffffffffffffffff82111715610a3857610a376109e1565b5b80604052505050565b6000610a4b6109c3565b9050610a578282610a10565b919050565b600067ffffffffffffffff821115610a7757610a766109e1565b5b610a80826108ac565b9050602081019050919050565b82818337600083830152505050565b6000610aaf610aaa84610a5c565b610a41565b905082815260208101848484011115610acb57610aca6109dc565b5b610ad6848285610a8d565b509392505050565b600082601f830112610af357610af26109d7565b5b8135610b03848260208601610a9c565b91505092915050565b60008060408385031215610b2357610b226109cd565b5b600083013567ffffffffffffffff811115610b4157610b406109d2565b5b610b4d85828601610ade565b925050602083013567ffffffffffffffff811115610b6e57610b6d6109d2565b5b610b7a85828601610ade565b9150509250929050565b600081519050919050565b600082825260208201905092915050565b6000819050602082019050919050565b6000819050919050565b610bc381610bb0565b82525050565b6000610bd58383610bba565b60208301905092915050565b6000602082019050919050565b6000610bf982610b84565b610c038185610b8f565b9350610c0e83610ba0565b8060005b83811015610c3f578151610c268882610bc9565b9750610c3183610be1565b925050600181019050610c12565b5085935050505092915050565b600060a0820190508181036000830152610c668188610917565b90508181036020830152610c7a8187610917565b90508181036040830152610c8e8186610917565b90508181036060830152610ca28185610917565b90508181036080830152610cb68184610bee565b90509695505050505050565b60008060008060808587031215610cdc57610cdb6109cd565b5b600085013567ffffffffffffffff811115610cfa57610cf96109d2565b5b610d0687828801610ade565b945050602085013567ffffffffffffffff811115610d2757610d266109d2565b5b610d3387828801610ade565b935050604085013567ffffffffffffffff811115610d5457610d536109d2565b5b610d6087828801610ade565b925050606085013567ffffffffffffffff811115610d8157610d806109d2565b5b610d8d87828801610ade565b91505092959194509250565b7f4e487b7100000000000000000000000000000000000000000000000000000000600052602260045260246000fd5b60006002820490506001821680610de057607f821691505b602082108103610df357610df2610d99565b5b50919050565b600081905092915050565b6000610e0f82610866565b610e198185610df9565b9350610e29818560208601610882565b80840191505092915050565b6000610e418284610e04565b915081905092915050565b60008190508160005260206000209050919050565b60006020601f8301049050919050565b600082821b905092915050565b600060088302610eae7fffffffffffffffffffffffffffffffffffffffffffffffffffffffffffffffff82610e71565b610eb88683610e71565b95508019841693508086168417925050509392505050565b6000819050919050565b6000610ef5610ef0610eeb84610bb0565b610ed0565b610bb0565b9050919050565b6000819050919050565b610f0f83610eda565b610f23610f1b82610efc565b848454610e7e565b825550505050565b600090565b610f38610f2b565b610f43818484610f06565b505050565b5b81811015610f6757610f5c600082610f30565b600181019050610f49565b5050565b601f821115610fac57610f7d81610e4c565b610f8684610e61565b81016020851015610f95578190505b610fa9610fa185610e61565b830182610f48565b50505b505050565b600082821c905092915050565b6000610fcf60001984600802610fb1565b1980831691505092915050565b6000610fe88383610fbe565b9150826002028217905092915050565b61100182610866565b67ffffffffffffffff81111561101a576110196109e1565b5b6110248254610dc8565b61102f828285610f6b565b600060209050601f8311600181146110625760008415611050578287015190505b61105a8582610fdc565b8655506110c2565b601f19841661107086610e4c565b60005b8281101561109857848901518255600182019150602085019450602081019050611073565b868310156110b557848901516110b1601f891682610fbe565b8355505b6001600288020188555050505b505050505050565b7f4e487b7100000000000000000000000000000000000000000000000000000000600052601160045260246000fd5b600061110482610bb0565b915061110f83610bb0565b9250828201905080821115611127576111266110ca565b5b9291505056fea2646970667358221220edd89e34b6132c539ccb2a907b9974d74d700a77169eff37df161c3f72b5e11864736f6c63430008130033",
  "immutableReferences": {},
  "source": "// SPDX-License-Identifier: MIT\npragma solidity >=0.4.22 <0.9.0;\n\ncontract QRGuide {\n  \n  string[] _emails;\n  string[] _passwords;\n\n  uint[] _productids;\n  string[] _filepaths;\n  string[] _productcosts;\n  string[] _productnames;\n  string[] _productlocations;\n\n  uint productid;\n\n  constructor() {\n    productid=0;\n  }\n\n  mapping(string=>bool) _users;\n\n  function signup(string memory email,string memory password) public {\n\n    require(!_users[email]);\n    _emails.push(email);\n    _passwords.push(password);\n    _users[email]=true;\n  }\n\n  function viewUsers() public view returns(string[] memory,string[] memory){\n    return (_emails,_passwords);\n  }\n\n  function addProduct(string memory filepath,string memory productcost,string memory productname,string memory productlocation) public {\n    productid+=1;\n    _productids.push(productid);\n    _filepaths.push(filepath);\n    _productcosts.push(productcost);\n    _productlocations.push(productlocation);\n    _productnames.push(productname);\n  }\n\n  function viewProducts() public view returns(string[] memory,string[] memory,string[] memory,string[] memory,uint[] memory){\n    return (_filepaths,_productcosts,_productlocations,_productnames,_productids);\n  }\n}\n",
  "sourcePath": "/Users/ms/Downloads/Final Year Project/contracts/QRGuide.sol",
  "compiler": {
    "name": "solc",
    "version": "0.8.19+commit.7dd6d404.Emscripten.clang"
  },
  "schemaVersion": "3.4.16",
  "updatedAt": "2024-03-19T14:17:06.757Z",
  "networkType": "ethereum",
  "devdoc": {
    "kind": "dev",
    "methods": {},
    "version": 1
  },
  "userdoc": {
    "kind": "user",
    "methods": {},
    "version": 1
  }
}